{
  "contractName": "EpicCoin",
  "abi": [
    {
      "inputs": [],
      "stateMutability": "nonpayable",
      "type": "constructor"
    },
    {
      "anonymous": false,
      "inputs": [
        {
          "indexed": true,
          "internalType": "address",
          "name": "owner",
          "type": "address"
        },
        {
          "indexed": true,
          "internalType": "address",
          "name": "spender",
          "type": "address"
        },
        {
          "indexed": false,
          "internalType": "uint256",
          "name": "value",
          "type": "uint256"
        }
      ],
      "name": "Approval",
      "type": "event"
    },
    {
      "anonymous": false,
      "inputs": [
        {
          "indexed": true,
          "internalType": "address",
          "name": "from",
          "type": "address"
        },
        {
          "indexed": true,
          "internalType": "address",
          "name": "to",
          "type": "address"
        },
        {
          "indexed": false,
          "internalType": "uint256",
          "name": "value",
          "type": "uint256"
        }
      ],
      "name": "Transfer",
      "type": "event"
    },
    {
      "inputs": [],
      "name": "admin",
      "outputs": [
        {
          "internalType": "address",
          "name": "",
          "type": "address"
        }
      ],
      "stateMutability": "view",
      "type": "function"
    },
    {
      "inputs": [
        {
          "internalType": "address",
          "name": "owner",
          "type": "address"
        },
        {
          "internalType": "address",
          "name": "spender",
          "type": "address"
        }
      ],
      "name": "allowance",
      "outputs": [
        {
          "internalType": "uint256",
          "name": "",
          "type": "uint256"
        }
      ],
      "stateMutability": "view",
      "type": "function"
    },
    {
      "inputs": [
        {
          "internalType": "address",
          "name": "spender",
          "type": "address"
        },
        {
          "internalType": "uint256",
          "name": "amount",
          "type": "uint256"
        }
      ],
      "name": "approve",
      "outputs": [
        {
          "internalType": "bool",
          "name": "",
          "type": "bool"
        }
      ],
      "stateMutability": "nonpayable",
      "type": "function"
    },
    {
      "inputs": [
        {
          "internalType": "address",
          "name": "account",
          "type": "address"
        }
      ],
      "name": "balanceOf",
      "outputs": [
        {
          "internalType": "uint256",
          "name": "",
          "type": "uint256"
        }
      ],
      "stateMutability": "view",
      "type": "function"
    },
    {
      "inputs": [],
      "name": "decimals",
      "outputs": [
        {
          "internalType": "uint8",
          "name": "",
          "type": "uint8"
        }
      ],
      "stateMutability": "view",
      "type": "function"
    },
    {
      "inputs": [
        {
          "internalType": "address",
          "name": "spender",
          "type": "address"
        },
        {
          "internalType": "uint256",
          "name": "subtractedValue",
          "type": "uint256"
        }
      ],
      "name": "decreaseAllowance",
      "outputs": [
        {
          "internalType": "bool",
          "name": "",
          "type": "bool"
        }
      ],
      "stateMutability": "nonpayable",
      "type": "function"
    },
    {
      "inputs": [
        {
          "internalType": "address",
          "name": "spender",
          "type": "address"
        },
        {
          "internalType": "uint256",
          "name": "addedValue",
          "type": "uint256"
        }
      ],
      "name": "increaseAllowance",
      "outputs": [
        {
          "internalType": "bool",
          "name": "",
          "type": "bool"
        }
      ],
      "stateMutability": "nonpayable",
      "type": "function"
    },
    {
      "inputs": [],
      "name": "name",
      "outputs": [
        {
          "internalType": "string",
          "name": "",
          "type": "string"
        }
      ],
      "stateMutability": "view",
      "type": "function"
    },
    {
      "inputs": [],
      "name": "symbol",
      "outputs": [
        {
          "internalType": "string",
          "name": "",
          "type": "string"
        }
      ],
      "stateMutability": "view",
      "type": "function"
    },
    {
      "inputs": [],
      "name": "totalSupply",
      "outputs": [
        {
          "internalType": "uint256",
          "name": "",
          "type": "uint256"
        }
      ],
      "stateMutability": "view",
      "type": "function"
    },
    {
      "inputs": [
        {
          "internalType": "address",
          "name": "recipient",
          "type": "address"
        },
        {
          "internalType": "uint256",
          "name": "amount",
          "type": "uint256"
        }
      ],
      "name": "transfer",
      "outputs": [
        {
          "internalType": "bool",
          "name": "",
          "type": "bool"
        }
      ],
      "stateMutability": "nonpayable",
      "type": "function"
    },
    {
      "inputs": [
        {
          "internalType": "address",
          "name": "sender",
          "type": "address"
        },
        {
          "internalType": "address",
          "name": "recipient",
          "type": "address"
        },
        {
          "internalType": "uint256",
          "name": "amount",
          "type": "uint256"
        }
      ],
      "name": "transferFrom",
      "outputs": [
        {
          "internalType": "bool",
          "name": "",
          "type": "bool"
        }
      ],
      "stateMutability": "nonpayable",
      "type": "function"
    },
    {
      "inputs": [
        {
          "internalType": "address",
          "name": "_to",
          "type": "address"
        },
        {
          "internalType": "uint256",
          "name": "_value",
          "type": "uint256"
        }
      ],
      "name": "mint",
      "outputs": [],
      "stateMutability": "nonpayable",
      "type": "function"
    }
  ],
  "bytecode": "0x60806040523480156200001157600080fd5b506040518060400160405280600881526020017f45706963436f696e0000000000000000000000000000000000000000000000008152506040518060400160405280600281526020017f4543000000000000000000000000000000000000000000000000000000000000815250816003908051906020019062000096929190620002b3565b508060049080519060200190620000af929190620002b3565b505050620000d73369021e19e0c9bab24000006200011e640100000000026401000000009004565b33600560006101000a81548173ffffffffffffffffffffffffffffffffffffffff021916908373ffffffffffffffffffffffffffffffffffffffff16021790555062000501565b600073ffffffffffffffffffffffffffffffffffffffff168273ffffffffffffffffffffffffffffffffffffffff16141562000191576040517f08c379a00000000000000000000000000000000000000000000000000000000081526004016200018890620003b6565b60405180910390fd5b620001ae60008383620002a9640100000000026401000000009004565b8060026000828254620001c2919062000406565b92505081905550806000808473ffffffffffffffffffffffffffffffffffffffff1673ffffffffffffffffffffffffffffffffffffffff168152602001908152602001600020600082825462000219919062000406565b925050819055508173ffffffffffffffffffffffffffffffffffffffff16600073ffffffffffffffffffffffffffffffffffffffff167fddf252ad1be2c89b69c2b068fc378daa952ba7f163c4a11628f55a4df523b3ef83604051620002809190620003d8565b60405180910390a3620002a560008383620002ae640100000000026401000000009004565b5050565b505050565b505050565b828054620002c1906200046d565b90600052602060002090601f016020900481019282620002e5576000855562000331565b82601f106200030057805160ff191683800117855562000331565b8280016001018555821562000331579182015b828111156200033057825182559160200191906001019062000313565b5b50905062000340919062000344565b5090565b5b808211156200035f57600081600090555060010162000345565b5090565b600062000372601f83620003f5565b91507f45524332303a206d696e7420746f20746865207a65726f2061646472657373006000830152602082019050919050565b620003b08162000463565b82525050565b60006020820190508181036000830152620003d18162000363565b9050919050565b6000602082019050620003ef6000830184620003a5565b92915050565b600082825260208201905092915050565b6000620004138262000463565b9150620004208362000463565b9250827fffffffffffffffffffffffffffffffffffffffffffffffffffffffffffffffff03821115620004585762000457620004a3565b5b828201905092915050565b6000819050919050565b600060028204905060018216806200048657607f821691505b602082108114156200049d576200049c620004d2565b5b50919050565b7f4e487b7100000000000000000000000000000000000000000000000000000000600052601160045260246000fd5b7f4e487b7100000000000000000000000000000000000000000000000000000000600052602260045260246000fd5b6115dc80620005116000396000f3fe608060405234801561001057600080fd5b50600436106100ec576000357c01000000000000000000000000000000000000000000000000000000009004806340c10f19116100a9578063a457c2d711610083578063a457c2d714610245578063a9059cbb14610275578063dd62ed3e146102a5578063f851a440146102d5576100ec565b806340c10f19146101db57806370a08231146101f757806395d89b4114610227576100ec565b806306fdde03146100f1578063095ea7b31461010f57806318160ddd1461013f57806323b872dd1461015d578063313ce5671461018d57806339509351146101ab575b600080fd5b6100f96102f3565b6040516101069190611285565b60405180910390f35b61012960048036038101906101249190610e94565b610385565b604051610136919061126a565b60405180910390f35b6101476103a3565b60405161015491906113a7565b60405180910390f35b61017760048036038101906101729190610e45565b6103ad565b604051610184919061126a565b60405180910390f35b6101956104a5565b6040516101a291906113c2565b60405180910390f35b6101c560048036038101906101c09190610e94565b6104ae565b6040516101d2919061126a565b60405180910390f35b6101f560048036038101906101f09190610e94565b61055a565b005b610211600480360381019061020c9190610de0565b610568565b60405161021e91906113a7565b60405180910390f35b61022f6105b0565b60405161023c9190611285565b60405180910390f35b61025f600480360381019061025a9190610e94565b610642565b60405161026c919061126a565b60405180910390f35b61028f600480360381019061028a9190610e94565b61072d565b60405161029c919061126a565b60405180910390f35b6102bf60048036038101906102ba9190610e09565b61074b565b6040516102cc91906113a7565b60405180910390f35b6102dd6107d2565b6040516102ea919061124f565b60405180910390f35b606060038054610302906114d7565b80601f016020809104026020016040519081016040528092919081815260200182805461032e906114d7565b801561037b5780601f106103505761010080835404028352916020019161037b565b820191906000526020600020905b81548152906001019060200180831161035e57829003601f168201915b5050505050905090565b60006103996103926107f8565b8484610800565b6001905092915050565b6000600254905090565b60006103ba8484846109cb565b6000600160008673ffffffffffffffffffffffffffffffffffffffff1673ffffffffffffffffffffffffffffffffffffffff16815260200190815260200160002060006104056107f8565b73ffffffffffffffffffffffffffffffffffffffff1673ffffffffffffffffffffffffffffffffffffffff16815260200190815260200160002054905082811015610485576040517f08c379a000000000000000000000000000000000000000000000000000000000815260040161047c90611307565b60405180910390fd5b610499856104916107f8565b858403610800565b60019150509392505050565b60006012905090565b60006105506104bb6107f8565b8484600160006104c96107f8565b73ffffffffffffffffffffffffffffffffffffffff1673ffffffffffffffffffffffffffffffffffffffff16815260200190815260200160002060008873ffffffffffffffffffffffffffffffffffffffff1673ffffffffffffffffffffffffffffffffffffffff1681526020019081526020016000205461054b91906113f9565b610800565b6001905092915050565b6105648282610c4c565b5050565b60008060008373ffffffffffffffffffffffffffffffffffffffff1673ffffffffffffffffffffffffffffffffffffffff168152602001908152602001600020549050919050565b6060600480546105bf906114d7565b80601f01602080910402602001604051908101604052809291908181526020018280546105eb906114d7565b80156106385780601f1061060d57610100808354040283529160200191610638565b820191906000526020600020905b81548152906001019060200180831161061b57829003601f168201915b5050505050905090565b600080600160006106516107f8565b73ffffffffffffffffffffffffffffffffffffffff1673ffffffffffffffffffffffffffffffffffffffff16815260200190815260200160002060008573ffffffffffffffffffffffffffffffffffffffff1673ffffffffffffffffffffffffffffffffffffffff1681526020019081526020016000205490508281101561070e576040517f08c379a000000000000000000000000000000000000000000000000000000000815260040161070590611367565b60405180910390fd5b6107226107196107f8565b85858403610800565b600191505092915050565b600061074161073a6107f8565b84846109cb565b6001905092915050565b6000600160008473ffffffffffffffffffffffffffffffffffffffff1673ffffffffffffffffffffffffffffffffffffffff16815260200190815260200160002060008373ffffffffffffffffffffffffffffffffffffffff1673ffffffffffffffffffffffffffffffffffffffff16815260200190815260200160002054905092915050565b600560009054906101000a900473ffffffffffffffffffffffffffffffffffffffff1681565b600033905090565b600073ffffffffffffffffffffffffffffffffffffffff168373ffffffffffffffffffffffffffffffffffffffff161415610870576040517f08c379a000000000000000000000000000000000000000000000000000000000815260040161086790611347565b60405180910390fd5b600073ffffffffffffffffffffffffffffffffffffffff168273ffffffffffffffffffffffffffffffffffffffff1614156108e0576040517f08c379a00000000000000000000000000000000000000000000000000000000081526004016108d7906112c7565b60405180910390fd5b80600160008573ffffffffffffffffffffffffffffffffffffffff1673ffffffffffffffffffffffffffffffffffffffff16815260200190815260200160002060008473ffffffffffffffffffffffffffffffffffffffff1673ffffffffffffffffffffffffffffffffffffffff168152602001908152602001600020819055508173ffffffffffffffffffffffffffffffffffffffff168373ffffffffffffffffffffffffffffffffffffffff167f8c5be1e5ebec7d5bd14f71427d1e84f3dd0314c0f7b2291e5b200ac8c7c3b925836040516109be91906113a7565b60405180910390a3505050565b600073ffffffffffffffffffffffffffffffffffffffff168373ffffffffffffffffffffffffffffffffffffffff161415610a3b576040517f08c379a0000000000000000000000000000000000000000000000000000000008152600401610a3290611327565b60405180910390fd5b600073ffffffffffffffffffffffffffffffffffffffff168273ffffffffffffffffffffffffffffffffffffffff161415610aab576040517f08c379a0000000000000000000000000000000000000000000000000000000008152600401610aa2906112a7565b60405180910390fd5b610ab6838383610dac565b60008060008573ffffffffffffffffffffffffffffffffffffffff1673ffffffffffffffffffffffffffffffffffffffff16815260200190815260200160002054905081811015610b3c576040517f08c379a0000000000000000000000000000000000000000000000000000000008152600401610b33906112e7565b60405180910390fd5b8181036000808673ffffffffffffffffffffffffffffffffffffffff1673ffffffffffffffffffffffffffffffffffffffff16815260200190815260200160002081905550816000808573ffffffffffffffffffffffffffffffffffffffff1673ffffffffffffffffffffffffffffffffffffffff1681526020019081526020016000206000828254610bcf91906113f9565b925050819055508273ffffffffffffffffffffffffffffffffffffffff168473ffffffffffffffffffffffffffffffffffffffff167fddf252ad1be2c89b69c2b068fc378daa952ba7f163c4a11628f55a4df523b3ef84604051610c3391906113a7565b60405180910390a3610c46848484610db1565b50505050565b600073ffffffffffffffffffffffffffffffffffffffff168273ffffffffffffffffffffffffffffffffffffffff161415610cbc576040517f08c379a0000000000000000000000000000000000000000000000000000000008152600401610cb390611387565b60405180910390fd5b610cc860008383610dac565b8060026000828254610cda91906113f9565b92505081905550806000808473ffffffffffffffffffffffffffffffffffffffff1673ffffffffffffffffffffffffffffffffffffffff1681526020019081526020016000206000828254610d2f91906113f9565b925050819055508173ffffffffffffffffffffffffffffffffffffffff16600073ffffffffffffffffffffffffffffffffffffffff167fddf252ad1be2c89b69c2b068fc378daa952ba7f163c4a11628f55a4df523b3ef83604051610d9491906113a7565b60405180910390a3610da860008383610db1565b5050565b505050565b505050565b600081359050610dc581611578565b92915050565b600081359050610dda8161158f565b92915050565b600060208284031215610df257600080fd5b6000610e0084828501610db6565b91505092915050565b60008060408385031215610e1c57600080fd5b6000610e2a85828601610db6565b9250506020610e3b85828601610db6565b9150509250929050565b600080600060608486031215610e5a57600080fd5b6000610e6886828701610db6565b9350506020610e7986828701610db6565b9250506040610e8a86828701610dcb565b9150509250925092565b60008060408385031215610ea757600080fd5b6000610eb585828601610db6565b9250506020610ec685828601610dcb565b9150509250929050565b610ed98161144f565b82525050565b610ee881611461565b82525050565b6000610ef9826113dd565b610f0381856113e8565b9350610f138185602086016114a4565b610f1c81611567565b840191505092915050565b6000610f346023836113e8565b91507f45524332303a207472616e7366657220746f20746865207a65726f206164647260008301527f65737300000000000000000000000000000000000000000000000000000000006020830152604082019050919050565b6000610f9a6022836113e8565b91507f45524332303a20617070726f766520746f20746865207a65726f20616464726560008301527f73730000000000000000000000000000000000000000000000000000000000006020830152604082019050919050565b60006110006026836113e8565b91507f45524332303a207472616e7366657220616d6f756e742065786365656473206260008301527f616c616e636500000000000000000000000000000000000000000000000000006020830152604082019050919050565b60006110666028836113e8565b91507f45524332303a207472616e7366657220616d6f756e742065786365656473206160008301527f6c6c6f77616e63650000000000000000000000000000000000000000000000006020830152604082019050919050565b60006110cc6025836113e8565b91507f45524332303a207472616e736665722066726f6d20746865207a65726f20616460008301527f64726573730000000000000000000000000000000000000000000000000000006020830152604082019050919050565b60006111326024836113e8565b91507f45524332303a20617070726f76652066726f6d20746865207a65726f2061646460008301527f72657373000000000000000000000000000000000000000000000000000000006020830152604082019050919050565b60006111986025836113e8565b91507f45524332303a2064656372656173656420616c6c6f77616e63652062656c6f7760008301527f207a65726f0000000000000000000000000000000000000000000000000000006020830152604082019050919050565b60006111fe601f836113e8565b91507f45524332303a206d696e7420746f20746865207a65726f2061646472657373006000830152602082019050919050565b61123a8161148d565b82525050565b61124981611497565b82525050565b60006020820190506112646000830184610ed0565b92915050565b600060208201905061127f6000830184610edf565b92915050565b6000602082019050818103600083015261129f8184610eee565b905092915050565b600060208201905081810360008301526112c081610f27565b9050919050565b600060208201905081810360008301526112e081610f8d565b9050919050565b6000602082019050818103600083015261130081610ff3565b9050919050565b6000602082019050818103600083015261132081611059565b9050919050565b60006020820190508181036000830152611340816110bf565b9050919050565b6000602082019050818103600083015261136081611125565b9050919050565b600060208201905081810360008301526113808161118b565b9050919050565b600060208201905081810360008301526113a0816111f1565b9050919050565b60006020820190506113bc6000830184611231565b92915050565b60006020820190506113d76000830184611240565b92915050565b600081519050919050565b600082825260208201905092915050565b60006114048261148d565b915061140f8361148d565b9250827fffffffffffffffffffffffffffffffffffffffffffffffffffffffffffffffff0382111561144457611443611509565b5b828201905092915050565b600061145a8261146d565b9050919050565b60008115159050919050565b600073ffffffffffffffffffffffffffffffffffffffff82169050919050565b6000819050919050565b600060ff82169050919050565b60005b838110156114c25780820151818401526020810190506114a7565b838111156114d1576000848401525b50505050565b600060028204905060018216806114ef57607f821691505b6020821081141561150357611502611538565b5b50919050565b7f4e487b7100000000000000000000000000000000000000000000000000000000600052601160045260246000fd5b7f4e487b7100000000000000000000000000000000000000000000000000000000600052602260045260246000fd5b6000601f19601f8301169050919050565b6115818161144f565b811461158c57600080fd5b50565b6115988161148d565b81146115a357600080fd5b5056fea2646970667358221220b9a25e24f1c6f80387d426fbd3d3cb8e99a5b858760657dbdb64f697c421de7864736f6c63430008000033",
  "immutableReferences": {},
  "source": "// SPDX-License-Identifier: MIT\r\npragma solidity >=0.4.22 <0.9.0;\r\n\r\nimport \"@openzeppelin/contracts/token/ERC20/ERC20.sol\";\r\n\r\ncontract EpicCoin is ERC20 {\r\n  address public admin;\r\n  constructor() ERC20(\"EpicCoin\", \"EC\") {\r\n        _mint(msg.sender, 10000 * 10 ** 18);\r\n        admin = msg.sender;\r\n  }\r\n  function mint(address _to, uint256 _value) public {\r\n    _mint(_to, _value);\r\n  }\r\n}",
  "sourcePath": "D:\\Andrija\\Blank zadatci\\Clone\\Crypto-Student-Internship\\contracts\\contracts\\EpicCoin.sol",
  "compiler": {
    "name": "solc",
    "version": "0.8.0+commit.c7dfd78e.Emscripten.clang"
  },
  "schemaVersion": "3.4.2",
  "updatedAt": "2021-08-30T16:57:16.561Z",
  "devdoc": {
    "kind": "dev",
    "methods": {
      "allowance(address,address)": {
        "details": "See {IERC20-allowance}."
      },
      "approve(address,uint256)": {
        "details": "See {IERC20-approve}. Requirements: - `spender` cannot be the zero address."
      },
      "balanceOf(address)": {
        "details": "See {IERC20-balanceOf}."
      },
      "decimals()": {
        "details": "Returns the number of decimals used to get its user representation. For example, if `decimals` equals `2`, a balance of `505` tokens should be displayed to a user as `5,05` (`505 / 10 ** 2`). Tokens usually opt for a value of 18, imitating the relationship between Ether and Wei. This is the value {ERC20} uses, unless this function is overridden; NOTE: This information is only used for _display_ purposes: it in no way affects any of the arithmetic of the contract, including {IERC20-balanceOf} and {IERC20-transfer}."
      },
      "decreaseAllowance(address,uint256)": {
        "details": "Atomically decreases the allowance granted to `spender` by the caller. This is an alternative to {approve} that can be used as a mitigation for problems described in {IERC20-approve}. Emits an {Approval} event indicating the updated allowance. Requirements: - `spender` cannot be the zero address. - `spender` must have allowance for the caller of at least `subtractedValue`."
      },
      "increaseAllowance(address,uint256)": {
        "details": "Atomically increases the allowance granted to `spender` by the caller. This is an alternative to {approve} that can be used as a mitigation for problems described in {IERC20-approve}. Emits an {Approval} event indicating the updated allowance. Requirements: - `spender` cannot be the zero address."
      },
      "name()": {
        "details": "Returns the name of the token."
      },
      "symbol()": {
        "details": "Returns the symbol of the token, usually a shorter version of the name."
      },
      "totalSupply()": {
        "details": "See {IERC20-totalSupply}."
      },
      "transfer(address,uint256)": {
        "details": "See {IERC20-transfer}. Requirements: - `recipient` cannot be the zero address. - the caller must have a balance of at least `amount`."
      },
      "transferFrom(address,address,uint256)": {
        "details": "See {IERC20-transferFrom}. Emits an {Approval} event indicating the updated allowance. This is not required by the EIP. See the note at the beginning of {ERC20}. Requirements: - `sender` and `recipient` cannot be the zero address. - `sender` must have a balance of at least `amount`. - the caller must have allowance for ``sender``'s tokens of at least `amount`."
      }
    },
    "version": 1
  },
  "userdoc": {
    "kind": "user",
    "methods": {},
    "version": 1
  }
}